:020000020000FC
:100000000FEF0DBF08E00EBF00E007B90FEF08B912
:100010000FEF04B900E005B90FEF0AB900E00BB922
:100020001FEF20E040E006B11017E9F30E94410005
:1000300006B11017C1F3102F0E9421000E94310059
:10004000F2CF02FF2395203131F003FF2A952F3F95
:1000500029F025B9089520E025B908952FE025B9A4
:10006000089504FF4395403131F005FF4A954F3F15
:1000700029F04BB9089540E025B908954FE025B91E
:1000800008953FEF3A953030E9F73FEF3A95303039
:0C009000E9F73FEF3A953030E9F70895AA
:00000001FF
