:020000020000FC
:100000000FEF0DBF08E00EBF00E80093610003E0B2
:100010000093610000E007B90FEF08B90FEF04B9D2
:1000200000E005B90FEF0AB900E00BB91FEF20E0BF
:1000300040E050E060E006B11017E9F30E9445008F
:1000400006B11017C1F3102F0E942E000E94340039
:100050000E943A0000FF0E944000EDCF02FF23956E
:1000600003FF2A952F70089504FF439505FF4A95D5
:100070004F7008954295522F542B42955BB90895C5
:10008000622F640F6F7165B908953FEF3A95303074
:10009000E9F73FEF3A953030E9F73FEF3A953030E6
:0400A000E9F70895DF
:00000001FF
