:020000020000FC
:100000000FEF0DBF08E00EBF00E007B90FEF08B912
:100010000FEF04B900E005B90FEF0AB900E00BB922
:100020001FEF20E040E006B11017E9F30E9437000F
:1000300006B11017C1F3102F0E9421000E942B005F
:10004000F2CF02FF239503FF2A95203151F02F3F75
:1000500059F025B9089504FF439505FF4A954BB91A
:10006000089520E025B9ECCF2FE025B9E9CF3FEF87
:100070003A953030E9F73FEF3A953030E9F73FEF06
:080080003A953030E9F70895CC
:00000001FF
